:020000040800F2
:100000003009002031020008A5060008A1060008FA
:10001000A3060008EF050008AD0E00080000000070
:10002000000000000000000000000000FD080008C3
:10003000F10500080000000021070008B5090008CC
:10004000D10E00084B0200084B020008850800088A
:100050004B0200084B0200084B0200084B0200084C
:100060004B0200084B0200084B0200084B0200083C
:100070004B0200084B0200084B0200084B0200082C
:100080004B0200084B0200084B0200084B0200081C
:100090004B0200084B0200084B0200084B0200080C
:1000A0004B0200084B0200084B0200084B020008FC
:1000B0004B020008150A00084B0200084B0200081A
:1000C0004B0200084B0200084B0200084B020008DC
:1000D0004B020008150C00088D0C0008050D0008E7
:1000E0004B020008FD0700084B0200084B02000805
:1000F000B50A00084B0200084B0200084B0200083A
:100100004B0200084B0200084B0200084B0200089B
:100110004B0200084B0200084B0200084B0200088B
:100120004B0200084B0200084B0200084B0200087B
:100130004B0200084B0200084B0200084B0200086B
:100140004B0200084B0200084B0200084B0200085B
:100150004B0200084B0200084B0200084B0200084B
:100160004B0200084B0200084B0200084B0200083B
:100170004B0200084B0200084B0200084B0200082B
:100180004B0200084B02000800F002F800F041F8B2
:100190000AA090E8000C82448344AAF10107DA45E2
:1001A00001D100F036F8AFF2090EBAE80F0013F0F3
:1001B000010F18BFFB1A43F0010318475815000040
:1001C00078150000103A24BF78C878C1FAD85207D1
:1001D00024BF30C830C144BF04680C6070470000C1
:1001E0000023002400250026103A28BF78C1FBD840
:1001F000520728BF30C148BF0B607047782900F014
:100200004380002070471FB501F062FA1FBD10B592
:1002100010BD00F0B7F91146FFF7F5FF01F0A8F89F
:1002200000F0D5F903B4FFF7F2FF03BC00F0D8F9F2
:100230000948804709480047FEE7FEE7FEE7FEE77A
:10024000FEE7FEE7FEE7FEE7FEE7FEE704480549B6
:10025000054A064B70470000B909000889010008EB
:100260003003002030090020300500203005002038
:100270000FB4044910B503AA029800F069F910BC44
:100280005DF814FB3400002070B504460D4621468D
:100290001068AFF300802188090502D50F4A7A441F
:1002A00002E00E4A7A440E32002104F1240305E0F4
:1002B00000F00F060009965D5E54491C0028F7D136
:1002C00020780023000704D5702D02D009B1022345
:1002D00011322046BDE8704000F0C8B83814000064
:1002E0002DE9F05F894604464FF0000ADFF824B19B
:1002F000FB44C0F820A02046E168884700287DD054
:10030000252806D0D4E901219047206A401C2062AC
:10031000F1E700255F462046E16888472028064629
:1003200007DB312E05D2B81910F8200C08B10543AF
:10033000F1E7A80701D525F00405C4F81CA00027A3
:10034000C4F818A02A2E09D0304600F0D7FD38B3E3
:1003500004EB8708303EC8F8186019E059F8041B10
:10036000204604EB87029161E1688847012F064629
:1003700018D1E069002820DA25F020051DE0D8F822
:10038000180000EB800006EB40003038C8F8180079
:100390002046E1688847064600F0B0FD0028EED10F
:1003A000012F0AD02E2E08D12046E16888477F1CF5
:1003B0000646022F45F02005C4DBA069002803DAB9
:1003C000404245F00105A061E80701D025F0100585
:1003D000A6B1A6F14100192802D8203645F40065DF
:1003E0004A463146204625604D46FFF707FF60B17B
:1003F000012807D0ED1D25F0070000E007E000F11F
:10040000080978E705F1040975E730467AE7206ABC
:10041000BDE8F09F0E1400004FF0000200B5134637
:1004200094469646203922BFA0E80C50A0E80C5014
:10043000B1F12001BFF4F7AF090728BFA0E80C50C5
:1004400048BF0CC05DF804EB890028BF40F8042BBE
:1004500008BF704748BF20F8022B11F0804F18BF2B
:1004600000F8012B70477047704770472DE9F0473F
:100470000D4699469246044600F124080168880614
:1004800004D5E06921F01001216000E00120A842BC
:1004900001DD471B00E00027A1697A1902EB090082
:1004A000081AA0612078C00602D42046AFF300806D
:1004B000002608E0D4E901211AF806009047206AD6
:1004C000401C761C20624E45F4DB2078C0060AD51D
:1004D0002046AFF3008006E0D4E9012130209047A8
:1004E000206A401C2062381EA7F10107F4DC07E0F7
:1004F000D4E9012118F805009047206A401C2062C9
:10050000281EA5F10105F3DC2046AFF3008020781A
:10051000000602D50220BDE8F0870120FBE70000BD
:1005200001694A1C02610878704700B58FB0CDE9B7
:1005300001310021059105497944CDE903101146A7
:100540006846FFF7CDFE0FB000BD0000E5FFFFFFDE
:10055000074B70B50D467B44FFF7E7FF044628467E
:1005600000F00CF810B14FF0FF3070BD204670BDA8
:10057000DF0A000000487047CC020020007B00F03A
:10058000800070477546FFF7F5FFAE4605006946E7
:10059000534620F00700854618B020B5FFF756FEF9
:1005A000BDE820404FF000064FF000074FF0000874
:1005B0004FF0000B21F00701AC46ACE8C009ACE8F5
:1005C000C009ACE8C009ACE8C0098D46704710B559
:1005D0000446AFF300802046BDE81040FFF722BE7E
:1005E00001491820ABBEFEE7260002007047FEE777
:1005F000704700000149086070470000143C01404A
:10060000F0B5002201274FF0030C0B6807FA02F542
:100610002B40AB422CD1066853000CFA03F4A643DE
:1006200006600E79D0F800E09E4046EA0E060660AD
:100630000E79012E01D0022E12D18668A643866063
:100640004E79D0F808E09E4046EA0E06866046687D
:10065000AE43466045688E799640B6B235434560F4
:10066000C568A543C560CC799C40C3681C43C46081
:10067000521C102AC9D3F0BD4B07DB0E9A40C908A3
:1006800010B500EB8100016A0F249C40A143016278
:10069000016A1143016210BD4183704701837047B5
:1006A000FEE7FEE77047000030B50F23C2780178FF
:1006B0000125FAB1144A126801F1E02102F4E06266
:1006C000C2F5E062C2F30722C2F10404D3404278CB
:1006D000A24084781C401443220181F80024007851
:1006E00000F01F018D404009800000F1E020C0F8BB
:1006F000005130BD01F01F0085404809800000F125
:10070000E020C0F8805130BD0CED00E00249084304
:1007100002490860704700000000FA050CED00E097
:1007200070470000044A0029116801D0014300E02D
:10073000814311607047000030380240044A0029AC
:10074000116801D0014300E081431160704700004F
:1007500040380240044A0029116801D0014300E0FA
:1007600081431160704700004438024070B5204B4F
:100770001968204C11F00C0104D06610042903D034
:10078000082903D004601BE0066019E0184A121F14
:100790001168C1F38055116801F03F0115B1B6FB36
:1007A000F1F101E0B4FBF1F114681268C4F38814AC
:1007B0006143C2F30142521C5200B1FBF2F10160ED
:1007C00019680F2202EA11110B4A545C0168E140DA
:1007D00041601C68072505EA9424145D21FA04F49D
:1007E00084601B6805EA5333D25CD140C16070BDA0
:1007F000083802400024F4000000002010B54FF437
:100800008054204600F01EF8012809D105494860AF
:10081000204600F009F86001BDE81040FFF7EABE8D
:1008200010BD000038000020C0F30F1040F0800021
:10083000C1430348026802F080021143016070471F
:100840000C2800400D4A10B5126800210B4B02F035
:100850000402383B1B6802EAD0340340234302EA17
:1008600010421343064A126802EA101003D0000433
:10087000000C00D00121084610BD000040280040B7
:100880000C28004010B54FF480442046FFF7DAFFF3
:10089000012809D1054908602046FFF7C5FF20025D
:1008A000BDE81040FFF7A6BE10BD000038000020D4
:1008B0000029018802D041F0400101E021F040010F
:1008C0000180704730B502884C8802F441530A8891
:1008D000CD8822438C882C4322430C8922434C89A7
:1008E00022438C892243CC8922431A430280828B83
:1008F00022F400628283098A018230BD70470000C1
:100900000CB50022274900920192086840F480301B
:1009100008604FF4A043086800F40030019000988C
:10092000401C0090019810B900989842F3D10868D3
:10093000800334D5012001901A484030026842F00B
:10094000805202601848026842F440420260154832
:10095000083002680260026842F4004202600268E5
:1009600042F4A0520260031F104A1A600A6842F063
:1009700080720A600A689201FCD50D4940F2057246
:100980000A60016821F003010160016841F0020181
:1009900001600168C1F381010229FAD10CBD019205
:1009A0000CBD0000003802400070004008544007B1
:1009B000003C024070470000124810B5016841F445
:1009C000700101601048016841F0010101600E4AA8
:1009D00000210832116002680C4B1A400260031DAE
:1009E0000B4A1A60026822F48022026006480C302A
:1009F0000160FFF785FF03494FF000608039086010
:100A000010BD000088ED00E000380240FFFFF6FE58
:100A10001030002410B5234C0121204600F079F855
:100A200001283ED12048D0F800022049002240B3DE
:100A30000A601F48D0F808323BB34A60D0F80C3245
:100A40003BB38A60D0F8100238B3CA60086801234B
:100A5000372801D90A600B614868372801D94A60F4
:100A60004B618868372801D98A608B61C86837284C
:100A700001D9CA60CB612046BDE81040012100F0D9
:100A80003BB80868401C0860D3E74B685B1C4B60B0
:100A9000D4E78B685B1C8B60D4E7C868401CC860D7
:100AA000D4E710BD000400400000404210000020C8
:100AB0000000424210B50D4C0121204600F029F8FB
:100AC000012812D10A49086A48B10A48D0F8A02280
:100AD00082F00102C0F8A022086A401E0862204687
:100AE000BDE81040012100F007B810BD001C004017
:100AF0001000002000804242C94301827047002953
:100B0000018802D041F0010101E021F001010180E2
:100B1000704702460020138A92890B4202EA0102C2
:100B200002D0002A00D001207047002A828901D01B
:100B30000A4300E08A4382817047000030B5028892
:100B4000164C174DA0420DD0A8420BD0B0F1804FEB
:100B500008D0144B984205D0134B984202D0134B47
:100B6000984203D122F070034A881A43104B9842EE
:100B700006D0104B984203D022F440730A891A43DE
:100B800002804A68C2620A880285A04201D0A84257
:100B900001D1897A01860121818230BD00000140A6
:100BA000000401400004004000080040000C004028
:100BB00000100040001400407FB50C46054601219E
:100BC0000220FFF7BBFD0194ADF800500024104D4A
:100BD000ADF80240ADF8084069462846FFF7AEFF81
:100BE000012211462846FFF7A0FF01212846FFF702
:100BF00086FF1D208DF80C0008208DF80D008DF863
:100C00000E4001208DF80F0003A8FFF74DFD7FBDBA
:100C10000004004070B51B4C40F225552946204683
:100C200000F0AFF801282CD1204600F037F9C2B20D
:100C3000002115480A2A14D0232A12D0D0F8CC302B
:100C40001BB1C0F8CC10C0F8C810D0F8C830C1181B
:100C50005B1CC0F8C8300A70D0F8C810C72907D08C
:100C600009E0D0F8C82081540121C0F8CC1002E07E
:100C7000D0F8C810425429462046BDE8704000F024
:100C800069B870BD001001405C00002070B51B4CBD
:100C900040F225552946204600F073F801282CD152
:100CA000204600F0FBF8C2B200211548232A12D0DA
:100CB000D0F8CC301BB1C0F8CC10C0F8C810D0F8B8
:100CC000C830C1185B1CC0F8C8300A70D0F8C81012
:100CD000C72909D00BE00A4AD03AD2F8C82081547B
:100CE0000121C0F8CC1002E0D0F8C81042542946C7
:100CF0002046BDE8704000F02DB870BD00440040B3
:100D00002C01002070B5114C40F225552946204693
:100D100000F037F8012818D1204600F0BFF8C3B220
:100D20000B48D0F8C8208118521CC0F8C8200B709E
:100D3000D0F8C810C72902D1D0F8C81043542946AA
:100D40002046BDE8704000F005B870BD0048004086
:100D5000FC0100200A0A01219140C943018070472B
:100D60000029818902D041F4005101E021F40051B1
:100D7000818170470246002012880A4200D001207B
:100D8000704770B501F01F0501260024C1F342131E
:100D900006FA05F2012B0FD0022B0FD0838A4FEAFF
:100DA00011210088134206FA01F600EA060001D07C
:100DB00000B10124204670BD8389F0E7038AEEE785
:100DC00010B5C1F3421301F01F040121A140012B12
:100DD00007D0022B07D01430002A026805D00A433E
:100DE00004E00C30F8E71030F6E78A43026010BDEB
:100DF0007FB50446008A0D46C98820F4405001435F
:100E00002182A08941F20C618843A9882A89114373
:100E10006A8902431143A181A08A20F44071A88904
:100E20000843A0826846FFF7A1FC1A48844202D01A
:100E30001948844201D1039800E00298A18909046D
:100E400000EBC00101EB0010296801D5490000E06A
:100E50008900B0FBF1F06422B0FBF2F109010B094B
:100E60006FF018056B4300EB8300A3891D044FF05E
:100E7000320306D503EBC000B0FBF2F000F0070030
:100E800005E003EB0010B0FBF2F000F00F000843A8
:100E900020817FBD00100140001401408088C0F314
:100EA00008007047C1F3080181807047FEE7000029
:100EB0000149002008607047082C004003490020C9
:100EC0000968002900D0012070470000082C00406C
:100ED00010B5FFF7F3FF012806D17F2000F006F8D8
:100EE000BDE81040FFF7E4BF10BD0000024900F06C
:100EF0007F00086070470000002C004030380A284E
:100F000001D2012070470020704770B515460C468D
:100F1000064600F03FF9A02000F00EF900F06EF94F
:100F200010B14FF0FF3070BD304600F005F900F011
:100F300065F910B16FF0010070BD00F02BF9A12030
:100F400000F0FAF800F05AF948B16FF0020070BDF5
:100F500000F0CEF804F8010B002000F07FF86D1EC1
:100F600015F0FF05F4D100F0C3F82070012000F067
:100F700075F800F02BF9002070BD70B515460C46D1
:100F8000064600F007F9A02000F0D6F800F036F988
:100F900010B14FF0FF3070BD304600F0CDF800F0DA
:100FA0002DF960B16FF0010070BD14F8010B00F075
:100FB000C3F800F023F910B16FF0020070BD6D1E90
:100FC000EDB2F2D200F002F9002070BD10B54FF082
:100FD000E02100230B610A4A4FF47A741268B2FBD5
:100FE000F4F2521E4A618B6105220A6103E00A692C
:100FF000D203FCD58B61401E80B2F8D20B6110BDCC
:101000004800002010B54FF0E02100220A61084B93
:10101000084C1B68B3FBF4F343435B1E4B618A61CE
:10102000052008610869C003FCD50A6110BD0000F5
:101030004800002040420F0070B5074D044681B2C1
:101040002846FFF72FFF80212846FFF793FE002850
:10105000F9D0204670BD0000001001402DE9F0419C
:101060000746012000F0C8F90F4C0025C4F8A4522F
:10107000C4F8A0520520FFF7C5FF012617B1C4F838
:10108000A46201E0C4F8A4520520FFF7BBFFC4F836
:10109000A0620520FFF7B6FFC4F8A052BDE8F041FA
:1010A0000520FFF7AFBF0000008040421CB50121C2
:1010B0000220FFF737FB4FF44070012400908DF8B9
:1010C00004408DF8064003208DF8050000208DF8BF
:1010D000070069460448FFF793FA0448C0F8A042A5
:1010E000C0F8A4421CBD0000000402400080404241
:1010F0002DE9F0410025284600F07EF907240D4F28
:1011000001264FF00008C7F8A0620520FFF77AFF1C
:10111000D7F8240218B106FA04F02843C5B2C7F87C
:10112000A0820520FFF76EFF641EECD52846BDE8BF
:10113000F0810000008040422DE9F041804601200E
:1011400000F05AF9124E0027C6F8A072C6F8A47231
:101150000520FFF757FF0724012505FA04F010EAE0
:10116000080F02D0C6F8A45201E0C6F8A472052008
:10117000FFF748FFC6F8A0520520FFF743FFC6F867
:10118000A0720520FFF73EFF641EE6D5BDE8F081A2
:101190000080404270B5012000F02EF90A4C012079
:1011A000C4F8A002C4F8A402052004F52874FFF7CF
:1011B00029FF002565600520FFF724FF2560BDE8B5
:1011C00070400520FFF71EBF0080404270B501202F
:1011D00000F012F9084C0125C4F8A0520020C4F810
:1011E000A402052004F52874FFF70CFF6560BDE834
:1011F00070400520FFF706BF0080404270B5002018
:1012000000F0FAF80A4D0120C5F8A0020520FFF70A
:10121000F9FED5F8240208B1012400E000240020E2
:10122000C5F8A0020520FFF7EDFE204670BD0000C6
:10123000008040422DE9FC4701215720FFF772FA58
:1012400001268DF8046002274FF480708DF8057038
:101250000024DFF87CA000908DF806408DF8074050
:1012600069465046FFF7CCF9402569461948009574
:10127000FFF7C6F9DFF86090694648460095FFF72A
:10128000BFF9E800DFF85480009069464046FFF758
:10129000B7F98DF8044080258DF8057000958DF81C
:1012A000076069464046FFF7ABF92802009069469F
:1012B0000B48FFF7A5F91020009069465046FFF74C
:1012C0009FF9694648460095FFF79AF9BDE8FC8703
:1012D00000000240001002400004024000080240EA
:1012E000001802402DE9FC4101213020FFF71AFAD5
:1012F0004FF40070009002208DF804008DF8050076
:1013000000241A4F8DF806408DF80740694638468C
:10131000FFF776F9092211463846FFF7ADF90125A6
:101320008DF804508DF805503E158DF80640009656
:101330008DF8074069463846FFF762F9314638466E
:10134000FFF7ACF98DF804508DF805502E028DF89A
:10135000064000968DF8074069463846FFF750F979
:1013600031463846FFF798F9BDE8FC810014024089
:101370008AB01EA0D0E90010CDE9081020216846EF
:10138000FFF74AF84FF44070FFF7C0F9FFF7AAFFE4
:101390004FF4E134204600F095F84FF4165000F079
:1013A000E9F8204600F03CF9C72140F24730FFF74A
:1013B00003FCFFF73FFF00F035F8FFF777FE05224B
:1013C00008A92A20FFF7D9FD0520FFF7FFFD052218
:1013D00069462A20FFF799FD00246D4605A0295D86
:1013E000FEF746FF641C052CF8DBFEE7C369C01559
:1013F0007F000000257820001CB54FF400718DF8A7
:10140000040001208DF8060003208DF8050000205F
:1014100000918DF8070069460148FFF7F1F81CBDFF
:101420000004024030B587B001210220FFF77AF9AD
:1014300001210803FFF78EF93820059002208DF86E
:1014400018008DF8190000241C4D8DF81A408DF8F5
:101450001B4005A92846FFF7D3F80522032128469B
:10146000FFF70AF9052204212846FFF705F90522AE
:1014700011462846FFF700F9ADF800404FF482709E
:10148000ADF80200ADF808406815ADF80A00182064
:10149000ADF80C00ADF80440ADF80640ADF80E40D4
:1014A0000720074CADF8100069462046FFF70AFAFE
:1014B00001212046FFF7FCF907B030BD00040240CF
:1014C0000030014070B50546012188B00846FFF79D
:1014D00029F901211020FFF73DF94FF4C060049075
:1014E00002208DF8140003208DF8150000241F4EF3
:1014F0008DF816408DF8174004A93046FFF780F8A4
:10150000072209213046FFF7B7F807220A213046A3
:10151000FFF7B2F80095ADF808400C20144DADF877
:101520000440ADF80A00ADF80640ADF80C4069463D
:101530002846FFF75DFC012240F225512846FFF7BF
:101540003FFC25218DF8181005208DF819008DF825
:101550001A4001208DF81B0006A8FFF7A5F801210D
:101560002846FFF7FDFB08B070BD000000000240F8
:1015700000100140F0B50646012187B00846FFF78C
:10158000D1F801214804FFF7D9F802208DF81400A2
:1015900003208DF8150000241F4F0C258DF81640F0
:1015A00004958DF8174004A93846FFF729F807225B
:1015B00002213846FFF760F8072203213846FFF77B
:1015C0005BF8ADF80840ADF80A50144DADF8044092
:1015D0000096ADF80640ADF80C4069462846FFF786
:1015E00007FC012240F225512846FFF7E9FB26219E
:1015F0008DF8181005208DF819008DF81A4001207B
:101600008DF81B0006A8FFF74FF801212846FFF7C9
:10161000A7FB07B0F0BD00000000024000440040FE
:1016200070B5054688B001210220FFF77BF8012143
:101630008804FFF783F84FF44060049002208DF88F
:10164000140003208DF8150000241F4E8DF816405D
:101650008DF8174004A93046FEF7D2FF07220A2171
:101660003046FFF709F807220B213046FFF704F850
:101670000095ADF808400C20144DADF80440ADF8CD
:101680000A00ADF80640ADF80C4069462846FFF761
:10169000AFFB012240F225512846FFF791FB27219D
:1016A0008DF8181005208DF819008DF81A400120CA
:1016B0008DF81B0006A8FEF7F7FF01212846FFF76B
:1016C0004FFB08B070BD000000040240004800401D
:1016D0004FF04070E1EE100A70473031323334354C
:1016E000363738394142434445464030580030315E
:1016F0003233343536373839616263646566403079
:101700007800040000080000000000000002000152
:101710000000100034170008000000205C000000EA
:10172000C4010008901700085C000020D4080000E5
:10173000E0010008000000000102030401020304AC
:10174000060708090000000000000000000000007B
:101750000000000000000000000000000000000089
:101760000000000000000000000000000000000079
:10177000000000000000000000000000007A030AE2
:101780000000000000000000010203040607080931
:040000050800018965
:00000001FF
